:020000040800F2
:1000000080040020D90000089D140008F1130008A6
:1000100000000000000000000000000000000000E0
:10002000000000000000000000000000A114000813
:1000300000000000000000009F140008A314000846
:10004000EB000008EB000008EB000008EB000008E4
:10005000EB000008EB000008EB000008EB000008D4
:1000600000000000EB000008EB000008EB000008B7
:1000700069010008EB000008EB000008EB00000835
:10008000EB000008EB000008EB000008EB000008A4
:1000900000000000EB000008EB000008EB00000887
:1000A000EB000008EB000008EB000008EB00000884
:1000B000EB000008EB00000800000000000000005A
:1000C0000448854600F03EF800480047A1150008A6
:1000D000C046C046800400200448804704480047CA
:1000E000FEE7FEE7FEE7FEE7FEE7FEE72D15000868
:1000F000C100000830B50B46014600202022012433
:1001000009E00D46D5409D4205D31D469540491B4B
:100110002546954040191546521E002DF1DC30BD94
:10012000D2B201E00270401C491EFBD2704700228F
:10013000F6E710B513460A4604461946FFF7F0FFE6
:10014000204610BD064C0125064E05E0E36807CCAD
:100150002B430C3C98471034B442F7D3FFF7B4FF5D
:1001600084160008A416000810B50A4C2068400741
:10017000C00F05D0042020600820206000F086F821
:100180002068C006C00F03D01020206000F074F873
:1001900010BD000000240140F8B5044600688168E5
:1001A0008907CD0F01F025F9002826D0002D24D194
:1001B000206881680522114010250126012910D1EF
:1001C00081680F4A1140891C816021680320086002
:1001D00000F0A2FC07460CE000F09EFCC01B0228C9
:1001E00007D9A06D2843A065E06D3043E06501208C
:1001F000F8BD20688068C007EED10020F8BD00007F
:10020000E8FFFF7FF8B50446006801F0F2F8002827
:100210002ED120688168174A10261140002919D173
:100220008168D5432940491C8160607E01281FD028
:1002300000F072FC074616E001F0DBF8002804D15C
:10024000206881682940491C816000F065FCC01B62
:10025000022808D9A06D3043A065E06D0121084354
:10026000E0650846F8BD20680168C943C907E3D1C5
:100270000020F8BD17000080034841681022914318
:10028000416000F073F800000024014010B50848F8
:10029000006C084C60806088074948430749FFF7B5
:1002A00029FFA08001202070002000F041F810BD3F
:1002B0000024014000000020E40C0000FF0F0000BB
:1002C000F0B5104987B04B6B042213434B63496B65
:1002D0000D4D114044000091295B019101210291D3
:1002E000002103910221094F04918600B85901A908
:1002F00000F06AFB295BB859002200F006FC07B049
:10030000F0BD000000100240401600080800002068
:1003100010B5054A4100515A044A80001058002285
:1003200000F0F3FB10BD000040160008080000209C
:1003300010B5054A4100515A044A80001058012264
:1003400000F0E3FB10BD000040160008080000208C
:1003500010B5044A4100515A034A8000105800F079
:10036000CDFB10BD4016000808000020FF24F53426
:100370000020FFF7EDFF204600F014FBF8E7000037
:10038000F8B500260546044640350096287D01282C
:100390000ED0012028752046FFF7FEFE0246206899
:1003A0008168C907C90F05D0A06D1021084330E04E
:1003B0000220F8BDA16DFF230133994302231943A5
:1003C000A165C168C3688907890F9B089B00C3604A
:1003D000206883680127FF073B4383600F4B206839
:1003E0000DE0009F7F1C00979F4208D3A06D022163
:1003F000884310210843A0652E750120F8BD876849
:10040000FF0FEED1C3680B43C360A06D800880006E
:10041000401CA0652E751046F8BD000000F20200D9
:10042000F8B500270646044640360097307D0D4655
:1004300001280FD001203075206800F0DEFF002871
:100440000AD0A06D20210843A06501270020307547
:100450003846F8BD0220F8BD686802287ED0012227
:100460002169D207914202D0121D914206D1206823
:100470002968826A4903490B0A436EE0C206D20E1C
:100480000F20216E904081432868430302D0C307A8
:100490004BD102E04000C00E48E0830701D50120A7
:1004A00044E0430701D5022040E0030701D50320C3
:1004B0003CE0C30601D5042038E0830601D50520C1
:1004C00034E0430601D5062030E0030601D50720BD
:1004D0002CE0C30501D5082028E0830501D50920BB
:1004E00024E0430501D50A2020E0030501D50B20B7
:1004F0001CE0C30401D50C2018E0830401D50D20B5
:1005000014E0430401D50E2010E0030401D50F20B0
:100510000CE0C30301D5102008E0830301D51120AE
:1005200004E0400301D5122000E000209040014388
:1005300021666968E2698808401C904210D82068EA
:100540002B68826A9C46C906C90E0F238B409A43CA
:1005500063469B001B0F8B401A4300E038E0826229
:100560002168AB6828684A6900028243184040014C
:10057000400902434A612868002800DB66E7294AEF
:10058000116807239B051940274B984211D10B0294
:100590000FD4C0020143104600F033FF2448234922
:1005A0000068FFF7A7FD00E0401E00900028FBD187
:1005B0004CE7204B984203D1CB0101D4800205E0E7
:1005C0001D4B9842DAD14802D8D45802014325E0A5
:1005D00001212069C907884202D0091D884206D13D
:1005E00020682968826A4903490B8A438262286825
:1005F0000028C3DA0B4A116807239B0519400A4BF0
:10060000984201D1C00208E00A4B984201D1800211
:1006100003E0094B9842B1D140028143104600F0FB
:10062000F0FE13E708270140001000B0400D030062
:100630000C000020004000B8002000B4F0B50026F7
:1006400085B00446029601960096002803D0A06D5E
:10065000002803D009E0012005B0F0BD204600F0DD
:1006600015F90020E0655421085520688168C9000B
:10067000C90F11D181687D4A11400122120711432F
:1006800081607C487A490068FFF734FD400000E053
:10069000401E00900028FBD1206881680127C90016
:1006A000C90F002907D1A16D10221143A165E16D89
:1006B0003943E165012600F0A0FEA16DC90601D411
:1006C000002804D0A06D10210843A065CAE0A06DE9
:1006D000FF210131884302210843A065206800F012
:1006E00088FE002822D12168C86818229043A26899
:1006F0001043C86020680169626889008908920F08
:1007000092071143016103216068890788420DD077
:10071000494288420AD04900884207D056498A682F
:100720000F239B049A43184002438A60207EA27ED6
:100730008503607EC003054350030543206B0028FA
:1007400001D0012000030543E0680543206900282B
:1007500002DA4000400801E001204005214605433F
:100760002031087B400005430298054308780128A2
:1007700008D1002A1DD0A06D20221043A065E06D95
:100780003843E065606A002806D0FF23C133184073
:10079000A26A284302431546626C206CE36C104346
:1007A000A26C097F1A431043019A1043012904D017
:1007B00004E0012000040543E4E738432168CA68E7
:1007C0002E4B1A402A43CA6021680A692C4B1A40F2
:1007D00002430A610021626B206800F019FE29497A
:1007E000A26B206800F014FE206900282AD00121A5
:1007F0004905884218D1216E002082000B46D34063
:10080000DA43120702D0401C0828F6D3012819D079
:100810002068826A227F9200121FD3060F22DB0E0D
:10082000D2439A400A4382622068C0681649084051
:10083000A8420ED10020E065A06D80088000401C19
:10084000A06510E02068816A0F22D24311438162C3
:10085000EAE7A06D0221884310210843A065E06DFE
:100860003843E06501263046F6E60000E8FFFF7FEA
:10087000400D03000C000020002701401902FEFF7C
:1008800002FCFFDF04FFFF07E7FF3F83F0B587B0FF
:10089000044614216846FFF74AFC1B492068884239
:1008A0002FD11A4C606B012738436063606B174D82
:1008B00038404035059028683E0530432860286858
:1008C00000223040059011460C2000F08DF90C20DC
:1008D00000F07EF928683043286028683040059091
:1008E000606B38436063606B694638400590102048
:1008F000009003200190002002900520000700F0E6
:1009000063F807B0F0BD0000002401400010024071
:1009100070B50446006800F070FD002802D0022186
:10092000084670BD25464035287D01280AD00120A3
:1009300028752046FFF766FC01460020002903D0F9
:100940002875EDE7022070BDA26D144B1A40FF23FD
:1009500001331A43A265E06523681C221A602875DA
:1009600020684368934343606069082820684268B0
:1009700001D0042300E008231A434260206B0028C2
:1009800004D12068426810231A43426020688268BC
:10099000034B1A40121D8260C2E70000FEF1FFFF08
:1009A000E8FFFF7F70B5044600F0B6F80546601C0E
:1009B00002D004484068241800F0AEF8401BA04262
:1009C000FAD370BD10000020F0B5002388E00122AA
:1009D0009A409446144022007ED04C68022C01D0EC
:1009E000122C0CD1DC08A40027183C6A5D07ED0E20
:1009F0000F26AE40B4430E69AE4026433E62056802
:100A00005E000324B4400F79A543BF07BF0FB74072
:100A10002F4307604D68012D05D0022D03D0112D05
:100A200001D0122D0ED18568CF68A543B7402F4362
:100A3000876047686546AF430D79ED06ED0F9D4031
:100A40003D434560C568A5438C68B4402C43C460F1
:100A50004C68E40043D59D08244CAD002F193C6E32
:100A60009D07EE0E0F25B540AC4305252D07A84286
:100A700001D100250FE01E4DA84201D101250AE059
:100A80001C4DA84201D1022505E01B4DA84201D111
:100A9000032500E00525B5402543144C3D66134D64
:100AA00080352E684F689643FF0300D516432E60AD
:100AB0006E684F689643BF0300D516436E60256885
:100AC0004E689543F60200D51543256065684E686B
:100AD0009543B60202D500E001E0154365605B1C5A
:100AE0000A681446DA4000D071E7F0BD00180240F1
:100AF0000004005000080050000C005042690A42F7
:100B000001D08162704781617047002A01D0816104
:100B1000704781627047000001488068704700009C
:100B2000100000200248816842688918816070477F
:100B30001000002010B508480024016882151143F8
:100B40000160204600F00AF8002801D0012401E0ED
:100B500000F028F8204610BD0020024070B50F4E6E
:100B6000002471680546002915D07D20C000FFF7DC
:100B7000C1FA01460A480068FFF7BCFA00F020FC01
:100B8000002808D1042D06D200222946401E00F07C
:100B90002BF8356000E00124204670BD10000020D5
:100BA0000C00002008B509480168012211430160CA
:100BB00000681040009005484038C26B01040A43A9
:100BC000C263C06B0840009008BD000040100240A6
:100BD000002805DBC106C90E0120884001490860D4
:100BE0007047000000E100E010B500F0A7FC10BD68
:100BF00010B50F4C2168032252029143014321603A
:100C0000C11FFF39FA390ED10A480621006848434E
:100C10000949FFF76FFA401C02E0002805D0401E8A
:100C200061694905F9D4002010BD032010BD000002
:100C3000007000400C00002040420F00F8B5044650
:100C400000680026664D800358D565480027403867
:100C5000C06BC00009D462484038C26B01040A432B
:100C6000C263C06B0840012700905E48016882158E
:100C700011430160FFF750FF009005E0FFF74CFFC4
:100C80000099401A022825D856480068C005F5D5B5
:100C9000E8690321090208400FD0616A81420CD043
:100CA000E86903210902EA698843012109040A432A
:100CB000EA61EA698A43EA61E861C0070FD0FFF799
:100CC0002BFF009008E0FFF727FF0099411A4648E4
:100CD000814201D9032609E0E8698007F3D5E86974
:100CE000032109028843616A0843E861002F05D0A7
:100CF0003B484038C26B01048A43C2632078C00776
:100D000005D06869616880088000084368612078C0
:100D1000800606D56869032189028843A1680843D3
:100D200068612088800506D56869032189048843A5
:100D30006169084368612088400506D56869032118
:100D400009058843A169084368612078400606D5F3
:100D50006869032109038843E168084368612088C2
:100D6000400411D56869E169800080080843686122
:100D70000121E0698907884206D119484038C168D5
:100D8000012212041143C1602068800210D56869F5
:100D900001218905226A884310436861206A8842DC
:100DA00006D10F484038C168012212061143C160C4
:100DB0002088000512D568690321890388432169C9
:100DC00008436861012120698903884206D10448EB
:100DD0004038C168012212041143C1603046F8BD99
:100DE000401002400070004088130000F8B50F4624
:100DF000060043D04D4D28684007400FB84213D23B
:100E00002868C008C00038432860FFF785FE044604
:100E100005E0FFF781FE011B4548814261D8286843
:100E20004007400FB842F4D13068424C81070DD5DD
:100E3000400704D5A068072109030843A060A06803
:100E40000F2109028843B1680843A0603078C007C9
:100E500032D0706801280AD002280BD000280FD0A9
:100E60003449403103280ED0C969890704E021685C
:100E7000890301E021688901002906DB0120F8BD12
:100E800021684905F8E7096AEFE7A168C908C900C0
:100E90000143A160FFF740FE009006E0FFF73CFE33
:100EA0000099411A224881421BD8A0683821084085
:100EB0007168C9008842F1D128684007400FB842E4
:100EC00017D91A480168C908C90039430160FFF7FA
:100ED00023FE054607E0FFF71FFE411B1448814231
:100EE00001D90320F8BD114800684007400FB842FF
:100EF000F1D13078400706D5A0680721090388435F
:100F0000F1680843A06000F01DF8A1683C2289093F
:100F10001140094A515CC906C90EC840074908601A
:100F200007480068FFF71AFEF8BD000000200240E5
:100F30008813000000100240441600080C00002036
:100F40001000002010B5204CA068204A8006400FF9
:100F500016D0A0688006410F501001290FD0A1685B
:100F60008906490F022912D0A0688006400F042884
:100F700023D0A0688006400F032821D0002010BD98
:100F8000206801218004400F8140104612E0E16892
:100F90008B07E1689B0F4906490F491C032B00D0C2
:100FA0001046FFF7A7F8E1684904490E4843E16895
:100FB000490F491CFFF79EF810BD0120C00310BD6A
:100FC0007D20000210BD0000001002400024F4004B
:100FD000F8B504007ED020783827C007EF4D0028F0
:100FE00046D0A868E96838408907890F102802D0E0
:100FF00008280BD001E0032908D001206268000412
:1010000082420AD129680143296015E028688003DB
:101010002ED560680028DDD02AE0052301211B04BD
:1010200089049A422A6802D10A432A60EAE7824385
:101030002A60286888432860606800280CD0FFF781
:101040006BFD064604E0FFF767FD801B642873D83C
:1010500028688003F7D50BE0FFF75EFD064604E045
:10106000FFF75AFD801B6428F1D828688003F7D465
:101070002078800769D5A868E96838408A07072181
:10108000920FC902102802D0002813D001E0022AD2
:1010900010D0E068002846D02868884321690843BA
:1010A00028602868FF21013108432860FFF734FDDC
:1010B00006462CE02A68520502D5E268002A89D04B
:1010C0006A687F231B029A4363691B021A436A60A2
:1010D000002800E08DE00ED128688843216908438C
:1010E0002860286801218004400F8140AC48FFF748
:1010F00001F8AC490860AC480068FFF72FFD0028F4
:1011000077D122E0FFF708FD801B02289FD82868CE
:101110004005F7D568687F210902884361690902A3
:101120000843686011E02968FF200130814329608D
:10113000FFF7F2FC064605E098E0FFF7EDFC801BA8
:10114000022884D828684005F7D42078974E0007F5
:101150002ED5A8688006400F03280AD0A069002871
:10116000306A16D0012108433062FFF7D5FC0746EC
:101170000BE0306A80071BD5A06900289FD017E0DC
:10118000FFF7CAFCC01B022870D8306A8007F7D569
:101190000EE0400840003062FFF7BEFC074604E066
:1011A000FFF7BAFCC01B022860D8306A8007F7D46A
:1011B000207840076CD5A86800278006400F0428D7
:1011C00018D0E86BC00008D4E96B01200007014388
:1011D000E963E96B01400127009175480168C90581
:1011E00019D40168821511430160FFF795FC009046
:1011F0000DE083E0F06980074AD5A06800287DD023
:1012000046E0FFF789FC0099401A02282ED868486A
:101210000068C005F5D5A168012910D00420052972
:10122000F16911D049084900F161F1698143F16127
:10123000A068002816D0FFF76FFC00900EE0F06960
:1012400001210843F061F3E70143F161F7E7FFF79C
:1012500063FC0099411A574881426FD8F0698007B2
:10126000F5D50EE0FFF758FC009007E066E0FFF7C9
:1012700053FC0099411A4F4881425FD8F0698007BA
:10128000F5D4002F04D0E86B012109078843E863F7
:10129000E06900287FD0A9688906490F022953D048
:1012A00001263606022828680DD0B0432860E86879
:1012B00080088000E860E8683F490840E860FFF780
:1012C0002BFC04463CE0B0432860FFF725FC0746B2
:1012D00004E0FFF721FCC01B02282FD828688001FA
:1012E000F7D4616A206AA26A0843E16A12021143D4
:1012F0000843216B0843616B084300E049E0E9685B
:101300002E4A11400843E860286830432860E868A6
:10131000012109070843E860FFF7FEFB044604E0EB
:10132000FFF7FAFB001B022808D828688001F7D5D0
:1013300031E0FFF7F1FB001B022801D90320F8BDC3
:1013400028688001F5D426E00128F8D0E868226AF0
:101350008107890F91421CD17021626A014091423C
:1013600017D17F21A26A090201401202914210D1D5
:101370001F214904E26A014091420AD1072149062E
:10138000226B0140914204D1400F616B40078842BB
:1013900001D00120F8BD0020F8BD0000001002407F
:1013A0000024F4000C000020100000204010024037
:1013B0000070004088130000FFFFFEEE8C80C1111A
:1013C000094910B5401E884201D9012010BD074CC3
:1013D00060610321081F00F0B1F80020A061072020
:1013E0002061002010BD0000FFFFFF0000E000E0D2
:1013F000FEE78068C007C00F704780684007C00FD5
:101400007047026807239B059A430A4302607047AE
:1014100010B543690424214007248C40A3438A402B
:101420001343436110BD00003EB5002419480094E9
:1014300001941749029401608460C4600905046145
:101440004160042141610476447684760121C161C2
:10145000014620310C704462846201220C73120335
:1014600002630522426382630C77C464FFF7E6F8E7
:10147000002809D108480090019469460294054863
:10148000FEF7CEFF002801D0FEF770FF3EBD000042
:10149000002401401C00002010000010704770471D
:1014A000704710B5FFF73EFB10BD30B59DB0382139
:1014B0006846FEF73CFE0025189519951A952821D7
:1014C0000EA81B95FEF733FE01204002FFF790FBAC
:1014D0000224E001039000944020059008200A9027
:1014E00080030B90079400020C900894000104956F
:1014F0000D9009956846FFF76BFD002811D1072074
:1015000018A931C1022118A81B95FFF76FFC00280C
:1015100007D160030E9015950EA8FFF78FFB0028EA
:1015200001D0FEF723FF1DB030BD000001200249AD
:10153000C00688607047000000ED00E08307FF22CE
:10154000DB0E9A408907090E9940002808DB8308C2
:1015500009489B001B18186890430843186070479F
:101560000007000F0838830804489B001B18D8693F
:1015700090430843D861704700E400E000ED00E0CC
:1015800002E008C8121F08C1002AFAD1704770474C
:10159000002001E001C1121F002AFBD170470000AA
:1015A00008B5FFF7C7FA0020FEF78AFEFFF77DFFB8
:1015B0001E48416B012211434163406B1040009073
:1015C000FFF732FF1A48FEF7DBFE002823D1194D42
:1015D0000126194C36030020FEF79AFE28780028D1
:1015E00001D0002028706E80A068C007C00F08D00E
:1015F000A068C007C00F0ED0A0688007C00F06D03B
:1016000009E00B48FFF784F9002804D10AE0A0683C
:101610004007C00F01D0FEF7A9FEA06807490840A7
:10162000001DA0606420FFF7BDF9D4E70010024060
:101630001C0000200000002000240140E8FFFF7F84
:10164000400000000000000000000000000000005A
:10165000000000000000000000000000000000008A
:101660000000000001000000020000000300000074
:101670000400000006000000070000000800000051
:1016800009000000A4160008000000201C00000053
:1016900080150008C01600081C000020640400002B
:1016A0009015000802000010000000000008005023
:1016B0000024F4000400000001000000000000000D
:04000005080000C12E
:00000001FF
