:020000040800F2
:1000000078050020D9000008411200084D0F0008B3
:1000100000000000000000000000000000000000E0
:100020000000000000000000000000004512000871
:100030000000000000000000431200084712000802
:10004000EB000008EB000008EB000008EB000008E4
:10005000EB000008EB000008EB000008EB000008D4
:1000600000000000EB000008EB000008EB000008B7
:100070009D010008A9120008EB000008EB00000831
:10008000EB000008EB000008EB000008EB000008A4
:1000900000000000EB000008EB000008EB00000887
:1000A000EB000008EB000008EB000008EB00000884
:1000B000EB000008EB00000800000000000000005A
:1000C0000448854600F058F80048004731150008FC
:1000D000C046C046780500200448804704480047D1
:1000E000FEE7FEE7FEE7FEE7FEE7FEE799120008FF
:1000F000C100000830B50B46014600202022012433
:1001000009E00D46D5409D4205D31D469540491B4B
:100110002546954040191546521E002DF1DC30BD94
:1001200003460B439B0703D009E008C9121F08C010
:10013000042AFAD203E00B780370401C491C521EBB
:10014000F9D27047D2B201E00270401C491EFBD2C6
:1001500070470022F6E710B513460A4604461946D2
:10016000FFF7F0FF204610BD421C0178401C00291B
:10017000FBD1801A70470000064C0125064E05E0B1
:10018000E36807CC2B430C3C98471034B442F7D3B8
:10019000FFF79AFFAC150008CC15000830B50D4CE0
:1001A0008DB02068C006C00F11D010252560342204
:1001B00009496846FFF7B4FF6846FFF7D5FF02B26A
:1001C0006946064800F0AAFE6068A84360600DB06A
:1001D00030BD0000002401407815000800380140BF
:1001E00070B5274C01280AD0022810D0032810D05F
:1001F000042810D0052810D0062810D01AE00122BB
:100200000021204600F0EEFE002201210FE01D4DEE
:1002100006E01D4D04E01D4D02E01D4D00E01D4DAA
:1002200000212A46204600F0DDFE00222946204615
:1002300000F0E5FEA068C007C00F07D0A0688007E7
:10024000C00F03D1A0684007C00F12D012A11548FB
:1002500001F03AF81348FFF787FF02B2114912483C
:1002600000F05CFE20684007C00FFBD00420206037
:1002700070BDA0680D490840001DA060F2E70000B5
:100280000024014002000004040000080800000CE3
:1002900010000010200000144552524F52204144DB
:1002A000430A0D002C00002000380140E8FFFF7FCA
:1002B00030B591B018216846FFF74BFF0025069531
:1002C0000795089518210AA80995FFF742FF012014
:1002D000000500F0A9FE032000F00EFF3F200A9069
:1002E00003200B9005200AA90E95000700F0A8FE38
:1002F00000210C2001F008F80C2000F0F9FFF0209C
:1003000001900120009500031B4C05900295039578
:1003100004956946204600F037FE206940084000F9
:1003200020612069E10488432061E0680912884364
:100330000843E06005220021204600F069FE052206
:100340000E49204600F064FE606804218843606026
:100350006068082188436060080706900895079543
:1003600006A90995204600F0F3FD606810210843B6
:10037000606011B030BD00000024014004FFFF07A1
:1003800010B50D4C2178002903D000202070401EAC
:1003900010BD012109036180FFF722FF0748006CAF
:1003A00060806088064948430649FFF7A3FEA080A5
:1003B00001202070A08810BD0C0000200024014006
:1003C000E40C0000FF0F0000F8B54448012102686A
:1003D0000A4302600068084000904048090740381E
:1003E000C26B0A43C263C06B0840009000F02CFF50
:1003F00000F0C8FC0122052516022D0731462846CB
:1004000000F0F0FA364C01223146204600F0EAFABC
:10041000012257023946204600F0E4FA01228021E9
:10042000204600F0DFFA01224021204600F0DAFAEF
:1004300001222021204600F0D5FA01221021204679
:1004400000F0D0FA01220821204600F0CBFA012268
:10045000D103284600F0C6FA01224021284600F0C8
:10046000C1FA01228021284600F0BCFA012211467F
:10047000204600F0B7FA01220221204600F0B2FA2D
:1004800000224021174800F0ADFA00220421204646
:1004900000F0A8FAAE62A662A7628020A0624020A7
:1004A000A0622020A0621020A0620820A0620003A9
:1004B000A8624020A8628020A8620120A0620220D9
:1004C000A062FFF7F5FE00F00FF8002400F0F2FB49
:1004D000641CE4B2502CF9D3F8BD00004010024077
:1004E000000400500008005038B50020204C009057
:1004F000A068C007C00F39D1A0681E4D0121284057
:1005000009070843A0601D481B490068FFF7F2FD7A
:10051000142148430A21FFF7EDFD00E0401E009042
:100520000028FBD1E0688007800F0090E068800819
:100530008000E060A06817218843C9070843A060D5
:10054000A068C00FFCD10098E168890889000143C8
:10055000E16020200090401E0090FCD1A06828405F
:10056000401CA0602068C007C00FFBD038BD000051
:1005700000240140E8FFFF7F400D03002800002019
:10058000FEB5EA4C01262246207B917B537A0193EB
:100590000527927AF6033F07E54D0092002822D105
:1005A000002920D1002B1ED1009A002A1BD1E27A0B
:1005B000002A18D1227C002A15D1BE611022AA621D
:1005C0001201AA625200AA628022AA624022AA6292
:1005D0000222AA620122AA624022BA628022BA6280
:1005E0000022A274E274D34A1388D34A9C469B1813
:1005F000FF22F532934221D8012802D0022807D0E9
:100600004FE000202073012060734020B86205E0B5
:1006100000202073012060730002A862002940D1ED
:10062000019800283DD1009800283AD1BE611020E1
:10063000A8620220A8620120A86232E07D2109019F
:1006400062468C451FD3002801D0022829D1012100
:1006500021731020A861BE620001A8624020B86129
:10066000A9610220A8615A20A07460730220E0747E
:100670000020009000F01EFB0098401CC0B20090CB
:100680005028F7D30DE00F2A0BD8002801D00128FD
:1006900007D102202073BE62C101A9615A21A17451
:1006A000E074A448A44940884218FF21F5318A42E9
:1006B00023D8A07B012802D0022807D051E00020D7
:1006C000A0730120E0738020B86205E00020A073D1
:1006D0000120E0734002A862207B002841D1607AAB
:1006E00000283ED1A07A00283BD1BE611020A8622C
:1006F0000220A8620120A86233E07D21090188421E
:1007000020D3A07B002801D002282AD10121A17387
:100710001020A861BE624001A8620220A86180206A
:10072000B861A9615A20A074E0730220E07400202F
:10073000009000F0BFFA0098401CC0B20090502812
:10074000F7D30EE00F280CD8A07B002801D0012899
:1007500007D10220A073BE620102A9615A21A174CF
:10076000E074744B744899880A18744882421CD803
:10077000617A012901D0022901D100216172217B16
:1007800000290FD1A17B00290CD1617A002909D160
:10079000A17A002906D1E17A002903D1217C002920
:1007A00000D1BE618021A9620EE00F290CD8617AC8
:1007B000002901D0012907D102216172BE62802285
:1007C000AA615A22A274E174D9885B4A8A188242CB
:1007D0001CD8A17A012901D0022901D10021A172DE
:1007E000217B00290FD1A17B00290CD1617A00293E
:1007F00009D1A17A002906D1E17A002903D1217C0F
:10080000002900D1BE614021A9620EE00F290CD859
:10081000A17A002901D0012907D10221A172BE626B
:100820004022AA615A22A274E1741989424A8A18A4
:1008300082421CD8E07A012801D0022801D1002090
:10084000E072207B00280FD1A07B00280CD1607AB9
:10085000002809D1A07A002806D1E07A002803D127
:10086000207C002800D1BE612020A8620EE00F2964
:100870000CD8E07A002801D0012807D10220E072CC
:10088000BE622021A9615A21A174E07458892A49C5
:100890004218FF21F5318A420AD8207C012801D074
:1008A000022804D1002020740821A9626074FEBDD2
:1008B00019218901884228D3207B00281FD1A07BE1
:1008C00000281CD1607A002819D1A07A002816D1FE
:1008D000E07A002813D1207C002810D10120207359
:1008E000A0731021A961BE620821A9610221A9613A
:1008F0004021B9618021B961A8610220E074012022
:100900006070002060716080FEBD0F28FCD8207CE4
:10091000002801D00128F7D102202074BE620121F5
:1009200061745A21A174E074FEBD000048010020EA
:100930000004005068010020B4FBFFFFB30B00006F
:1009400003484169002902D04169491E416170474D
:100950000C00002001B50098410003484161416945
:100960000029FCD108BD00000C00002010B51B4878
:10097000817C002905D0491E0906090E817400D129
:10098000C1741649437B0524CA7B24071449002BF4
:100990000CD05B1E1B061B0E437307D1002A03D12C
:1009A00001238B6202238B624023A362002A0DD0B5
:1009B000521E1206120EC27308D1427B002A03D1C6
:1009C00001228A6202228A628022A262407C01287D
:1009D00003D14A69082042404A6110BD4801002005
:1009E0000004005070B586B00E4604461546182126
:1009F0006846FFF7AEFB05200007844201D10120C5
:100A000012E01148844201D102200DE00F488442D7
:100A100001D1042008E00E48844201D1082003E0FF
:100A20000C48844202D1202000F066FB0220029094
:100A3000002003900120049000960195694620460D
:100A400000F0FEFA06B070BD00040050000800502F
:100A5000000C005000140050F8B58E4D04212846BB
:100A600000F042FB002812D000208B4C012600270A
:100A7000207000280DD02079012800D026716088D0
:100A8000401C80B2608050285BD3667059E0012022
:100A9000EBE72179012901D127716671002850D136
:100AA0006079012805D0607801284AD160885028F3
:100AB00047D3627879A17D4800F006FC207B0128AD
:100AC00012D0022810D0A17B01290DD002290BD011
:100AD000617A022908D0A17A022905D0E17A022997
:100AE00002D0217C022903D10121A962A774E774F5
:100AF0006188502923D3002821D1A07B00281ED152
:100B0000607A00281BD1A07A002818D1E07A00284A
:100B100015D1207C002812D12673A6731020A8615D
:100B2000C1020520000781620821A9610221A96193
:100B30004021816180218161AE610220E074677192
:100B4000678040215A4800F0CFFA00280AD00020E0
:100B5000E0710028A07907D0012800D0A671207A82
:100B6000401C95E00120F3E7012827D10020A07167
:100B70006078012803D0207B002820D087E0002661
:100B8000667066742673A6731020A862C1020520E1
:100B9000000781610821A9620221A96240218162C6
:100BA000802181620120A862002500F083F86D1C7D
:100BB000EDB2502DF9D3A6742672E674F8BDA07B71
:100BC000002864D1607A002861D1A07A00285ED123
:100BD000E07A00285BD1207C002858D1207A502868
:100BE00055D3FF27013705263607B762AF62790074
:100BF000A9628022AA624022AA622022AA6210224E
:100C0000AA620822AA628A01B262002521484169CB
:100C1000794041610121426949024A404261426989
:100C200080214A404261426940214A404261426912
:100C300020214A404261426910214A404261426992
:100C400008214A4042614001B0622820FFF782FE3D
:100C50006D1CEDB2062DD9D3B7620E4DAF620120E7
:100C60004002A8628020A8624020A8622020A862DA
:100C70001020A8620820A8620003B0620120A861C9
:100C8000B7617820FFF766FE0120A862B7620020F6
:100C90002072F8BD00040050480100204D414E2F45
:100CA00053494C203D2025750A0D20002C000020C2
:100CB00000080050F8B52A4C2078FFF761FB29495D
:100CC000002808604ADD23780C21274A59438E18F2
:100CD00026495B1C0D786F00F619403EB086D8B2ED
:100CE000234B20701F787B1C984237D10120207045
:100CF0006D1CE8B21F4B08701E78B0422ED1002048
:100D0000087004461C4D19E00020174A21460C23A8
:100D100059438918286006E042008A5A2B68D21885
:100D2000401CC0B22A60B042F6D331462868FFF7B3
:100D3000E1F962001149641C8852E4B2BC42E3D379
:100D40000E480F4902880A8042884A8082888A8039
:100D5000C288CA8002890A8140894881F8BD0000A2
:100D60000200002008000020F40000200300002002
:100D70000100002000000020040000203C010020B1
:100D80006801002070B539483949066892B08E4232
:100D900004D33046FFF7AEF9441E00E00024354D81
:100DA00030462E61611CAC60FFF7A4F9502807D3D0
:100DB000611C502041433046FFF79CF9401E00E083
:100DC0000020E86014216846FFF7C3F9302105A828
:100DD000FFF7BFF90120C00200F026F900210D2025
:100DE00000F092FA0D2000F083FA23A12648EB6868
:100DF000AA6800F069FA2448FFF7B6F902B222495E
:100E0000224800F08BF82889694608800026019660
:100E1000E86802901E4C03960E74204600F0D4F948
:100E20002168802081432160A1681A4A1140A16095
:100E3000616870229143616061680F2212059143DD
:100E40006160A1688143A1600B9605A920460F96B9
:100E500000F074F9B01E2061E16801200143E160F7
:100E600021680143216012B070BD000028000020FD
:100E7000102700000C0000205052453D25642050F2
:100E800045523D25640D0A002C0000200038014029
:100E9000002C0140F8BFFEFF1F480122027041797B
:100EA000491CCBB200214371022B04D14171427025
:100EB00083795B1C83718379042B04D18171C3799D
:100EC0005B1CC3718270C379052B04D1C171037A95
:100ED0005B1C0372C270037A022B04D10172437A45
:100EE0005B1C43720271427A3C2A03D14172827ABE
:100EF000521C8272827A3C2A03D18172C27A521CBD
:100F0000C272C27A182A06D1C1728172417201720C
:100F1000C1718171417170475C01002030B50023BF
:100F200040250CE0C4692406E40FFBD0002A00D160
:100F30000562CC5C5B1C9BB28462521E12B2002A1A
:100F4000F0DCC1694906C90FFBD030BDFEE70000E7
:100F500070B583680022DB07DB0F02D00122104648
:100F600070BD8C684B68C5682343CC68054E35401E
:100F70002C432343C360036909689B009B080B4310
:100F80000361ECE7C73FFFFF70B54D68836800223F
:100F9000DB07DB0F02D00122104670BDC4680123BD
:100FA0005B051C420E4B01D0F02D08D08D680C68FB
:100FB0000E692C43CD6835432C434D6905E0CD685F
:100FC0000C684E692C430D6935432C43C5681D40A0
:100FD0002C43C4604968836A0B438362DCE70000EA
:100FE0003CC2FEFF10B5836AC906C90E0F248C40AF
:100FF0009200120FA3438A401343836210BD4369DA
:1010000009028B431140490149090B434361704771
:1010100010B543690424214007248C40A3438A402F
:101020001343436110BD000008B504490A68024338
:101030000A6009680140009108BD000040100240AC
:10104000F0B500243EE001232A46A3401A4038D0E0
:101050004F680668134653435D005D19AE435F4316
:101060003E4306604E68012E01D0022E05D18F68E6
:1010700086685F43AE433E4386600F69C668AE43F1
:101080001D467D432E43C6604D68022D19D1FF2AAF
:101090000AD84E69056A534353431A01D21A95433D
:1010A00073431D4305620CE0130A1A465A435A4320
:1010B0005A4313019E1A4D69436A6A43B34313436B
:1010C0004362641C0A681546E240BCD14A68012AA2
:1010D00001D0022A06D1CB6841682A4691435A437F
:1010E000114341600020F0BD0069814301D0002020
:1010F000704701207047000008B504494A6B02435D
:101100004A63496B0140009108BD00000010024095
:1011100010B57D21C900FEF7EDFF0449401E48616E
:10112000002088610520086110BD000000E000E09B
:1011300001490860704700002800002010B50A7BB4
:1011400003231B029A438B6801241A4301239B0249
:101150009A434B68E4031A430123DB029A430B686A
:101160001A4301231B039A43CB891A4301235B03D0
:101170009A430B691A4301239B039A43CB6A1A4390
:10118000A2431A430F4B984219D10F231B049A43D1
:101190004B691A4363039A438B691A430F231B0558
:1011A0009A434B6A1A4363029A43CB691A43A302D8
:1011B0009A430B6A896A1A43A3039A430A43426417
:1011C000002010BD002C014070B50268174B184D6F
:1011D000984201D0A84203D17024A2434C68224314
:1011E000144E154C984208D0A84206D0134DA84280
:1011F00003D0B04201D0A04204D103252D02AA435E
:10120000CD682A4302608A68C2620A888262984274
:1012100003D0B04201D0A04201D1097C01634169F1
:10122000012211434161002070BD0000002C0140EB
:1012300000040040004401400048014000200040FC
:10124000704770477047704710B5114801688215A4
:101250001143016001684905C90FFBD081680F2265
:101260001202914381608168C908C90081603822F7
:1012700081681142FCD18168072212039143816089
:10128000044C2046FFF744FF2046FFF751FF10BDF6
:10129000001002400024F40001200249C0068860CA
:1012A0007047000000ED00E010B506480169C9076D
:1012B000C90F02D00121C9430161FFF741FBFFF7CC
:1012C000EBFD10BD002C01400FB410B504A9074B75
:1012D00002AA039800F04AF8044602A9002000F090
:1012E000EDF8204610BC08BC04B01847BD14000837
:1012F000002805DBC106C90E0120884001490860AD
:101300007047000000E100E08307FF22DB0E9A40F7
:101310008907090E9940002808DB830809489B00CB
:101320001B18186890430843186070470007000FA7
:101330000838830804489B001B18D8699043084369
:10134000D861704700E400E000ED00E002E008C86A
:10135000121F08C1002AFAD170477047002001E02F
:1013600001C1121F002AFBD170470000FFB58DB0EC
:101370000446002506E025280AD0109A0F999047C8
:10138000641C6D1C20780028F5D1284611B0F0BDF2
:1013900000270121484A009700E00743641C237896
:1013A0000846203B98401042F7D120782E2817D1CC
:1013B000042007436078641C2A280CD10E98641C12
:1013C00002C800910E900BE000990A225143303977
:1013D0004018641C00902078014630390929F3D95F
:1013E00020780028D1D0642808D0692806D0752834
:1013F0001ED0109A0F9990476D1C5BE00A200E9941
:10140000019001C90E91002802DA40422D2102E02C
:10141000390504D52B216A461172012103E0F90731
:1014200004D02021F7E70BAE0B910DE00021FAE785
:101430000A200E99019001C90E91F7E70199FEF774
:1014400059FE3031761E31700028F7D103A8801B79
:1014500020300190780701D5009801E0012000902C
:101460000199884201DD401A00E000200027009029
:1014700006E002A8109AC05D0F9990476D1C7F1C72
:101480000B988742F5DB04E0109A30200F999047C3
:101490006D1C0099481E00900029F5DC05E03078AD
:1014A000109A761C0F9990476D1C0199481E019067
:1014B0000029F4DC641C65E7092801000A68531C54
:1014C0000B6010707047000070B51849FF220523AB
:1014D00001321B074C7800280AD001280CD00E4698
:1014E0000025367802280CD0032816D09A6270BDE9
:1014F000002CFCD09A6202E0012CF8D09A6148706E
:1015000070BD022C02D00D7048700AE0042E08D184
:101510000D7058695040586103E0032CF3D1282E18
:10152000F6D00878401C087070BD00002400002030
:10153000FEF74AFF0F4E0025344614342078012868
:1015400004D12570FFF7B6FBFFF786FAA0780128D3
:1015500008D1A5707078002801D1FFF711F8F07C50
:10156000FFF7B2FF20790128E8D12571FFF7FEF9D6
:10157000E4E7000048010020414443204552524F17
:1015800052210D0A000000000000000000000000D1
:10159000000000000000000000000000000000004B
:1015A000000000000000000000000000CC15000852
:1015B000000000202C0000004C130008F815000863
:1015C0002C0000204C0500005C13000802060100FE
:1015D00000000000000000000200001000000000F9
:1015E00000000000000000000100000000000000FA
:0815F000000000000024F400DB
:04000005080000C12E
:00000001FF
